:020000040000FA
:060000000A128A1110280B
:10000800FE00030EF3000A08F400831203137F08AE
:10001800F5000A168A11322B0A128A111328831640
:100028000313E701E80183010A168A11F42C8312ED
:10003800031344088039C9004908CE004408C900A0
:100048004907CA004A08D400C31F2B282C282D288A
:10005800541454080319312832284128540A031D1E
:10006800362837283F280030C4000030C30000304D
:10007800C2000030C100C31749280030C400003056
:10008800C3000030C2000030C10048088039C900F0
:100098004908CE064808C9004907CA004A08D300DB
:1000A800C71F5728582859285314530803195D287F
:1000B8005E286D28530A031D622863286B280030C8
:1000C800C8000030C7000030C6000030C500C717A0
:1000D80075280030C8000030C7000030C600003066
:1000E800C5005308031979287A287F285408031D66
:1000F8007E287F2888280030C4000030C3000030E4
:10010800C2000030C1007B2B4108C9004908A0008B
:1001180047080A168A11CA220A128A11831203137F
:100128002108DA002008D9005908C900CA01CB0102
:10013800CC014C08D2004B08D1004A08D00049082D
:10014800CF005A08C900CA01CB01CC014C08D8001D
:100158004B08D7004A08D6004908D5004208C9000C
:100168004908A00046080A168A11CA220A128A11EA
:10017800831203132108DA002008D9005908C9009E
:10018800CA01CB01CC014908CF074A08031103185B
:10019800013E0319D028D0074B0803110318013E6C
:1001A8000319D728D1074C0803110318013E031976
:1001B800DE28D2075A08C900CA01CB01CC01490878
:1001C800D5074A0803110318013E0319EC28D6077E
:1001D8004B0803110318013E0319F328D7074C08ED
:1001E80003110318013E0319FA28D8074308C90068
:1001F8004908A00045080A168A11CA220A128A115B
:10020800831203132108DA002008D9005908C9000D
:10021800CA01CB01CC014908CF074A0803110318CA
:10022800013E03191829D0074B0803110318013E92
:1002380003191F29D1074C0803110318013E03199C
:100248002629D2075A08C900CA01CB01CC0149089E
:10025800D5074A0803110318013E03193429D607A4
:100268004B0803110318013E03193B29D7074C0813
:1002780003110318013E03194229D8070830C900A1
:100288000310CF0DD00DD10DD20DC90B4429420852
:10029800C9004908A00045080A168A11CA220A128C
:1002A8008A11831203132108DA002008D90059089B
:1002B800C9005A08CA00CB01CC014908CF074A082F
:1002C80003110318013E03196A29D0074B080311CB
:1002D8000318013E03197129D1074C0803110318AB
:1002E800013E03197829D2074108C9004908A0002E
:1002F80046080A168A11CA220A128A11831203139F
:100308002108DA002008D9005908C9005A08CA008B
:10031800CB01CC014908CF074A0803110318013E55
:1003280003199729D0074B0803110318013E031935
:100338009E29D1074C0803110318013E0319A5296A
:10034800D2070830C9000310CF0DD00DD10DD20D42
:10035800C90BA7294108C9004908A00045080A1681
:100368008A11CA220A128A11831203132108DA0099
:100378002008D9005908C9005A08CA00CB01CC0185
:100388004908CF074A0803110318013E0319CD296C
:10039800D0074B0803110318013E0319D429D107CC
:1003A8004C0803110318013E0319DB29D207420840
:1003B800C9004908A00047080A168A11CA220A1269
:1003C8008A11831203132108DA002008D90059087A
:1003D800C9005A08CA00CB01CC014908D5074A0808
:1003E80003110318013E0319FA29D6074B08031114
:1003F8000318013E0319012AD7074C0803110318F3
:10040800013E0319082AD8074308C9004908A00073
:1004180046080A168A11CA220A128A11831203137D
:100428002108DA002008D9005908C9005A08CA006A
:10043800CB01CC014908D5074A0803110318013E2E
:100448000319272AD6074B0803110318013E03197D
:100458002E2AD7074C0803110318013E0319352A21
:10046800D8074308C9004908A00047080A168A1196
:10047800CA220A128A11831203132108DA002008FB
:10048800D9005908C9005A08CA00CB01CC01083064
:100498000310C90DCA0DCB0DCC0DFF3E031D4C2A10
:1004A8004908D5074A0803110318013E03195D2AB4
:1004B800D6074B0803110318013E0319642AD7070E
:1004C8004C0803110318013E03196B2AD8074F087B
:1004D800C9005008CA005108CB005208CC00183097
:1004E8000310CC0CCB0CCA0CC90CFF3E031D742A9C
:1004F8004908D5074A0803110318013E0319852A3C
:10050800D6074B0803110318013E03198C2AD70795
:100518004C0803110318013E0319932AD807083021
:10052800C9000310CF0DD00DD10DD20DC90B952ADE
:1005380054085307C900CA01CA0D4908823ED900A8
:100548004A080318013EFF3EDA00C72A0130C900F5
:100558000310D50DD60DD70DD80DC90BAC2AD21F57
:10056800B62AB72AB82A55140130C9000310CF0D8E
:10057800D00DD10DD20DC90BBA2AFF30D9070318F7
:10058800DA0AFF30DA07D71FCA2ACB2AAA2AD301E8
:10059800D21FCF2AD02AEC2AFF304F05C900FF30DE
:1005A8005005CA00FF305105CB007F305205CC0002
:1005B8004C084B044A0449040319E32AE42AE72AAD
:1005C800D301D30AEC2A551CEA2AEB2AEC2AE42A9E
:1005D80053080319F02AF12A222B0130D5070030DD
:1005E80003180130D607003003180130D707003050
:1005F80003180130D807581C022B032B222B55084F
:10060800C9005608CA005708CB005808CC0001306A
:10061800CD004C0DCC0CCB0CCA0CC90CCD0B0D2B42
:100628004C08D8004B08D7004A08D6004908D5001E
:100638000130D9070318DA0A0030DA075A08803A75
:10064800FF0080307F02031D2B2BFF305902031C53
:100658002E2B2F2B3A2B7F3083120313D800803098
:10066800D7000030D6000030D5006F2B831203135B
:100678005A08803AFF0080307F02031D452B013065
:1006880059020318482B492B552B003083120313AA
:10069800D8000030D7000030D6000030D500CE0199
:1006A8006F2B831203135908C9004908D400FF307F
:1006B800D505FF30D6057F30D7050030D805541C46
:1006C800662B672B682BD7175408C9000310490CF1
:1006D800CA004A08D8004E08C9004908D804580872
:1006E800C4005708C3005608C2005508C1000800D6
:1006F800831203135E088039E3006308EB005E0889
:10070800E3006307E4006408ED00DD1F8C2B8D2BEC
:100718008E2B6D146D080319922B932BA32B6D0A46
:10072800031D972B982BA02B0030DE000030DD0036
:100738000030DC000030DB00DD17DE01AB2B0030C1
:10074800DE000030DD000030DC000030DB00620835
:100758008039E3006308EC006C086B060319B52BBD
:10076800B62BB72B6B176208E3006307E400640835
:10077800EC00E11FC02BC12BC22B6C146C080319B1
:10078800C62BC72BD72B6C0A031DCB2BCC2BD42BFA
:100798000030E2000030E1000030E0000030DF000F
:1007A800E117E201DF2B0030E2000030E100003009
:1007B800E0000030DF006D086C020318E42BE52B25
:1007C800292C6B1FE82BE92BED2B8030E300630805
:1007D800EB066D08E3006308EE006C08E3006308AD
:1007E800ED006E08E3006308EC005B08E3006308B3
:1007F800EE005F08E3006308DB006E08E3006308AF
:10080800DF005C08E3006308EE006008E3006308AB
:10081800DC006E08E3006308E0005D08E30063089D
:10082800EE006108E3006308DD006E08E30063087A
:10083800E1005E08E3006308EE006208E300630875
:10084800DE006E08E3006308E200EE016C08E300D6
:10085800E4016408E6006D086302E500031CE60392
:100868006608803AFF0080307F02031D3D2C1A3055
:100878006502031C402C412C7E2C831203135E0856
:100888005D045C045B04031D4A2C4C2C01304D2C88
:100898000030E3006308EE000030DE000030DD00C9
:1008A8000030DC000030DB006C08E3006308ED007A
:1008B800862C6E1C602C612C6A2C6E08E3000310D9
:1008C800630C0138E4006408EE006C2C0310EE0C95
:1008D8005B1C6F2C702C712CEE170130E3005E0D41
:1008E800DE0CDD0CDC0CDB0CE30B732C0130E300BD
:1008F8006308ED07831203136C086D02031C852C33
:10090800862C5D2C6B1B892C8A2CD52C6D08031D1D
:100918008E2C8F2C982C0030DE000030DD0000304B
:10092800DC000030DB00032E5F08DB0760080311E2
:100938000318013E0319A12CDC07610803110318F1
:10094800013E0319A82CDD07620803110318013EB4
:100958000319AF2CDE075E1CB22CB32C892D6E1C3C
:10096800B62CB72CC02C6E08E3000310630C0138BA
:10097800E4006408EE00C22C0310EE0C5B1CC52CCE
:10098800C62CC72CEE170130E3005E0DDE0CDD0C23
:10099800DC0CDB0CE30BC92C0130E3006308ED072A
:1009A800892D5E08803AFF006208803A7F02031DA5
:1009B800E72C61085D02031DE72C60085C02031D3B
:1009C800E72C5F085B020318EA2CEB2C432DFF3061
:1009D800E300FF30E400FF30E500FF30E6005F0889
:1009E800E7006008E8006108E9006208EA005B08BF
:1009F800E7025C08031C5C0F022D032DE8025D086A
:100A0800031C5D0F082D092DE9025E08031C5E0F0B
:100A18000E2D0F2DEA026708E30768080318680F10
:100A2800162D172DE40769080318690F1C2D1D2DB5
:100A3800E5076A0803186A0AE6076608DE0065081B
:100A4800DD006408DC006308DB008030E300630835
:100A5800EB06EE09EE0A6E08031D332D342D512DD9
:100A68000130DB07003003180130DC0700300318C1
:100A78000130DD07003003180130DE07512D5F0813
:100A8800DB026008031C600FDC026108031C610FB5
:100A9800DD026208031C620FDE025E085D045C046E
:100AA8005B04031D582D592D852D6E08031D5D2DE2
:100AB8005E2D852D0030DE000030DD000030DC00CA
:100AC8000030DB00032E0130E3000310DB0DDC0DEA
:100AD800DD0DDE0DE30B692DEE1F732D742D752DC5
:100AE8005B146E1C782D792D7C2D0314EE0D7E2D54
:100AF8000310EE0D6D080319822D832D852D01300D
:100B0800ED02DD1F882D892D672DEC01EE1F8D2D3F
:100B18008E2D9C2D6E087F390319932D942D972DBA
:100B2800EC01EC0A9C2D5B1C9A2D9B2D9C2D942D81
:100B38006C080319A02DA12DD52D0130DB0700303D
:100B480003180130DC07003003180130DD070030DE
:100B580003180130DE075E1CB22DB32DD52D5B08BE
:100B6800E3005C08E4005D08E5005E08E60001308B
:100B7800E700660DE60CE50CE40CE30CE70BBD2D75
:100B88006608DE006508DD006408DC006308DB0039
:100B98006D0A0319D02DD12DD52D0130E30063083E
:100BA800ED076D0A0319D92DDA2DDF2D6D08031D08
:100BB800DE2DDF2DED2D0030DE000030DD000030B1
:100BC800DC000030DB006D08031DEB2DEC2DED2D56
:100BD800EB016D1CF02DF12DF32DDD17F72D7F3076
:100BE800E3006308DD056D08E3000310630CE4000F
:100BF8006408DE00EB1F012E022E032EDE1708000C
:100C08008312031327088039A8002808B100270891
:100C1800A8002807A9002908B800A61F142E152E19
:100C2800162E3814380803191A2E1B2E2B2E380AA4
:100C3800031D1F2E202E282E0030A7000030A600EE
:100C48000030A5000030A400A617A701332E0030FD
:100C5800A7000030A6000030A5000030A40023083B
:100C68008039A8002808B1062308A8002807A90089
:100C78002908B900A21F412E422E432E39143908E3
:100C88000319472E482E582E390A031D4C2E4D2E77
:100C9800552E0030A3000030A2000030A100003023
:100CA800A000A217A301602E0030A3000030A2000C
:100CB8000030A1000030A0002308220421042004F1
:100CC800031D672E682E812E0030A7000030A60075
:100CD8000030A5000030A4008030A6047F30A704AF
:100CE8003108A8002808A7042708A3002608A2009E
:100CF8002508A1002408A000E02F3808031D852E30
:100D0800862E8F2E0030A3000030A2000030A100F4
:100D18000030A000E02F3808A800A9012908AB007E
:100D280039082802AA00031CAB032A087F3EB20038
:100D38002B080318013E003EB3002708B000260820
:100D4800AF002508AE002408AD000030A700003031
:100D5800A6000030A5000030A4000030B700003025
:100D6800B6000030B5000030B400B901052F3908CD
:100D78000319BF2EC02EE02E0130A8000310AD0DC0
:100D8800AE0DAF0DB00DA80BC22E0130A800031098
:100D9800A40DA50DA60DA70DA80BCB2EB71FD52EFC
:100DA800D62ED72E24140130A8000310B40DB50D8B
:100DB800B60DB70DA80BD92E23083002031DEE2E51
:100DC80022082F02031DEE2E21082E02031DEE2EEF
:100DD80020082D02031CF12EF22E012F37172008B0
:100DE800AD022108031C210FAE022208031C220FAA
:100DF800AF022308031C230FB0020130A800280803
:100E0800B9071A303902031C0A2F0B2FBB2E3008E2
:100E18002F042E042D040319122F132F322F3414EC
:100E2800322F0130A8000310A40DA50DA60DA70DA3
:100E3800A80B172FB71F212F222F232F241401307F
:100E4800A8000310B40DB50DB60DB70DA80B252FCE
:100E5800FF30B2070318B30AFF30B307A61F352FB8
:100E6800362F152FB901B71F3A2F3B2F572FFF30B9
:100E78003405A800FF303505A900FF303605AA0063
:100E88007F303705AB002B082A04290428040319EE
:100E98004E2F4F2F522FB901B90A572F241C552F07
:100EA800562F572F4F2F390803195B2F5C2F8D2F83
:100EB8000130A407003003180130A50700300318DB
:100EC8000130A607003003180130A707271C6D2F33
:100ED8006E2F8D2F2408A8002508A9002608AA002F
:100EE8002708AB000130AC002B0DAB0CAA0CA90CE9
:100EF800A80CAC0B782F2B08A7002A08A6002908F5
:100F0800A5002808A4000130B2070318B30A00306E
:100F1800B3073308803AFF0080307F02031D962F05
:100F2800FF303202031C992F9A2FA82FFF3083120B
:100F38000313B2000030B3000030A7000030A60051
:100F48000030A5000030A400831203133308803A50
:100F5800FF0080307F02031DB32F013032020318D7
:100F6800B62FB72FC42F83120313B201B301003079
:100F7800A7000030A6000030A5000030A400B10191
:100F8800831203133208A8002808B800381CCD2F94
:100F9800CE2FD02FA617D42F7F30A8002808A6055B
:100FA8003808A8000310280CA9002908A700310850
:100FB800A8002808A704782E080083120313230822
:100FC8002204210420040319EA2FEB2FED2F80308F
:100FD800A3060800831603130614071488010800E3
:060FE8008B170B16080038
:10100E000030831203132005A80000302105A9002B
:10101E0080302205AA007F302305AB002B082A045E
:10102E0029042804031D1C281D2825280030A30090
:10103E000030A2000030A1000030A00000302405D6
:10104E00A80000302505A90080302605AA007F30B3
:10105E002705AB002B082A0429042804031D382871
:10106E00392841280030A7000030A6000030A50026
:10107E000030A400A31F4428452869280030A8008A
:10108E000030A9000030AA008030AB002008A80272
:10109E002108031C210F54285528A9022208031CDD
:1010AE00220F5A285B28AA022308031C230F60284C
:1010BE006128AB022B08A3002A08A2002908A10070
:1010CE002808A000A71F6C286D2891280030A800C2
:1010DE000030A9000030AA008030AB002408A8021E
:1010EE002508031C250F7C287D28A9022608031C31
:1010FE00260F82288328AA022708031C270F882878
:10110E008928AB022B08A7002A08A6002908A500EB
:10111E002808A4008030A3068030A70627082302E3
:10112E00031DA32826082202031DA3282508210239
:10113E00031DA328240820020318A628A728A928DF
:10114E000310AA280314080083160313230883121E
:10115E000313BD0083160313220883120313BC006E
:10116E0083160313210883120313BB008316031384
:10117E00200883120313BA00A830EF006F08BE00D8
:10118E000A168A111C240A128A1583160313A91F24
:10119E00D128D2280F29230883120313A300831604
:1011AE000313220883120313A200831603132108CC
:1011BE0083120313A1008316031320088312031353
:1011CE00A0000030A7000030A6000030A5000030BF
:1011DE00A4000A128A1507200A128A150318F82885
:1011EE00F9280429BF3083160313A3008030A20010
:1011FE000030A1000030A000DD290030831603135B
:10120E00A3000030A2000030A1000030A000DD29B4
:10121E00003029021D3003192802031C1729182932
:10122E001929DD29230883120313B1008316031332
:10123E00220883120313B0008316031321088312AE
:10124E000313AF0083160313200883120313AE009B
:10125E000A168A1178240A128A158312031331088A
:10126E00A3003008A2002F08A1002E08A000013014
:10127E000A168A11A2250A128A158312031323084D
:10128E0083160313A7008312031322088316031376
:10129E00A60083120313210883160313A5008312DD
:1012AE000313200883160313A400230883120313C9
:1012BE00A30083160313220883120313A2008316BE
:1012CE000313210883120313A100831603132008AE
:1012DE0083120313A000831603132708831203132C
:1012EE00A70083160313260883120313A600831682
:1012FE000313250883120313A50083160313240872
:10130E0083120313A4000A128A1507200A128A15E3
:10131E00031892299329D329BF3083120313DE00B9
:10132E008030DD000030DC000030DB00831603135C
:10133E00270883120313E200831603132608831271
:10134E000313E10083160313250883120313E00031
:10135E0083160313240883120313DF000A128A1163
:10136E007C230A128A15831203135E088316031355
:10137E00A300831203135D0883160313A2008312C6
:10138E0003135C0883160313A100831203135B0877
:10139E0083160313A000DD29831603132708A30069
:1013AE002608A2002508A1002408A0000800831624
:1013BE000313330883120313A30083160313320897
:1013CE0083120313A200831603133108831203132F
:1013DE00A10083160313300883120313A0000030FC
:1013EE00A7000030A6000030A5000030A4000A12AD
:1013FE008A1507200A128A150318062A072A162AA2
:10140E00213083160313E7000030E8000030B300EC
:10141E000030B2000030B1000030B0004B2B83160C
:10142E000313330883120313B10083160313320818
:10143E0083120313B00083160313310883120313B0
:10144E00AF0083160313300883120313AE0000306F
:10145E00B5000030B4000030B3000030B2000A1600
:10146E008A11CC230A128A15031C3E2A3F2A4E2AC1
:10147E00223083160313E7000030E8000030B3007B
:10148E000030B2000030B1000030B0004B2BBF3046
:10149E0083120313DE008030DD000030DC000030EC
:1014AE00DB004030C4000030C3000030C20000300A
:1014BE00C100B430EF006F08BE008316031333086B
:1014CE0083120313BD008316031332088312031312
:1014DE00BC0083160313310883120313BB0083165B
:1014EE000313300883120313BA000A168A111C2440
:1014FE000A128A15831203133D08C8003C08C70060
:10150E003B08C6003A08C5000A128A111B200A12AF
:10151E008A15831203134408E2004308E1004208CF
:10152E00E0004108DF000A128A117C230A128A1594
:10153E00831203135E0883160313B300831203137F
:10154E005D0883160313B200831203135C0883161F
:10155E000313B100831203135B0883160313B00049
:10156E00FF30B4070318B50AFF30B5073308A300E0
:10157E003208A2003108A1003008A00029308312E1
:10158E000313EF006F0883160313A4000830A500A1
:10159E000030A6000A168A1126270A128A1583160B
:1015AE0003132308B3002208B2002108B10020085B
:1015BE00B000330883120313DE00831603133208C0
:1015CE0083120313DD0083160313310883120313F2
:1015DE00DC0083160313300883120313DB003F3045
:1015EE00C4003130C3007230C2001830C1008316FF
:1015FE000313340883120313A00083160313350854
:10160E0083120313A1000030A11BFF30A200A30020
:10161E0001300A168A11A2250A128A1583120313A3
:10162E002308C8002208C7002108C6002008C500EC
:10163E000A128A111B200A128A15831203134408F8
:10164E00E2004308E1004208E0004108DF000A1210
:10165E008A117C230A128A15831203135E088316DD
:10166E000313B300831203135D0883160313B20032
:10167E00831203135C0883160313B1008312031342
:10168E005B0883160313B000080083160313D501FD
:10169E00470883120313B1008316031346088312FF
:1016AE000313B00083160313450883120313AF0010
:1016BE0083160313440883120313AE000030B500E3
:1016CE000030B4000030B3000030B2000A168A11A8
:1016DE00CC230A128A15031C752B762BB22B0030E5
:1016EE0083120313A3000030A2000030A1000030CB
:1016FE00A000831603134B0883120313A70083164F
:10170E0003134A0883120313A60083160313490812
:10171E0083120313A50083160313480883120313C1
:10172E00A4000A128A1507200A128A15031CA02B80
:10173E00A12BA72B213083160313E7000030E800FE
:10174E00003083160313C7000030C6000030C500FA
:10175E000030C400882D831603134B088312031325
:10176E00B100831603134A0883120313B0008316C5
:10177E000313490883120313AF008316031348089B
:10178E0083120313AE000030B5000030B4000030F9
:10179E00B3000030B2000A168A11CC230A128A1541
:1017AE00031CDA2BDB2BE62B3F3083160313C7000B
:1017BE008030C6000030C5000030C400882D83166E
:1017CE000313470883120313A3008316031346085B
:1017DE0083120313A2008316031345088312031307
:1017EE00A10083160313440883120313A0000030D4
:1017FE00A7000030A6000030A5000030A4000A1299
:10180E008A1507200A128A1503180E2C0F2CD42CB9
:10181E00831603134B0883120313B10083160313AD
:10182E004A0883120313B000831603134908831268
:10183E000313AF0083160313480883120313AE007D
:10184E000A168A1178240A128A1583120313310894
:10185E0083160313D9008312031330088316031360
:10186E00D800831203132F0883160313D700831295
:10187E0003132E0883160313D6005908831203137D
:10188E00A30083160313580883120313A2008316B2
:10189E000313570883120313A1008316031356086C
:1018AE0083120313A00000300A168A11A2250A1211
:1018BE008A15831203132308B1002208B0002108F1
:1018CE00AF002008AE00831603134B0883120313D8
:1018DE00B500831603134A0883120313B40083164C
:1018EE000313490883120313B30083160313480826
:1018FE0083120313B2000A168A11CC230A128A1518
:10190E0003188A2C8B2C9A2C213083160313E70094
:10191E000030E8000030C7000030C6000030C500BF
:10192E000030C400882D8316031356080139CC00ED
:10193E004C08D500470883120313A3008316031324
:10194E00460883120313A20083160313450883125D
:10195E000313A10083160313440883120313A0007C
:10196E000A128A11E1270A128A1583120313230819
:10197E0083160313C700831203132208831603135F
:10198E00C60083120313210883160313C5008312A6
:10199E000313200883160313C4008316031347088A
:1019AE00B3004608B2004508B1004408B0000A1260
:1019BE008A15DE210A128A15831603133308D00006
:1019CE003208CF003108CE003008CD004B0883120C
:1019DE000313C400831603134A0883120313C300B0
:1019EE0083160313490883120313C20083160313CD
:1019FE00480883120313C100831603135008831281
:101A0E000313C800831603134F0883120313C70072
:101A1E00831603134E0883120313C6008316031393
:101A2E004D0883120313C5000A128A111B200A12D5
:101A3E008A1583120313440883160313D4008312EA
:101A4E000313430883160313D300831203134208B0
:101A5E0083160313D2008312031341088316031354
:101A6E00D1005408BB005308BA005208B9005108FF
:101A7E00B8000A128A1589250A128A1583160313CD
:101A8E003B08C7003A08C6003908C5003808C4002C
:101A9E0055080319532D542D882D4708831203130F
:101AAE00A30083160313460883120313A2008316A2
:101ABE000313450883120313A1008316031344086E
:101ACE0083120313A0000A128A11E1270A128A1543
:101ADE0083120313230883160313C7008312031301
:101AEE00220883160313C6008312031321088316DC
:101AFE000313C50083120313200883160313C400B7
:101B0E00882D0800831603133B0883120313B100BC
:101B1E00831603133A0883120313B00083160313BC
:101B2E00390883120313AF00831603133808831288
:101B3E000313AE000030B5000030B4000030B30027
:101B4E000030B2000A168A11CC230A128A15031C21
:101B5E00B12DB22DBD2D3F3083160313BB00803047
:101B6E00BA000030B9000030B800FF2F44308312A5
:101B7E000313A3003130A2007230A1001830A00070
:101B8E00831603133B0883120313A7008316031354
:101B9E003A0883120313A60083160313390883121F
:101BAE000313A50083160313380883120313A4002E
:101BBE000A128A1507200A128A150318E72DE82D36
:101BCE00F72D223083160313E7000030E8007F3034
:101BDE00BB007F30BA00FF30B900FF30B800FF2FD6
:101BEE00831603133B0883120313A30083160313F8
:101BFE003A0883120313A2008316031339088312C3
:101C0E000313A10083160313380883120313A000D5
:101C1E00C430A7003A30A6004830A5008730A40093
:101C2E000A128A1507200A128A1503181F2E202E53
:101C3E002F2E223083160313E7000030E800003009
:101C4E00BB000030BA000030B9000030B800FF2FE2
:101C5E00831603133B0883120313A3008316031387
:101C6E003A0883120313A200831603133908831252
:101C7E000313A10083160313380883120313A00065
:101C8E000030A7000030A6000030A5000030A400F0
:101C9E000A128A1507200A128A15031C572E592E6E
:101CAE0001305A2E003083160313BC003C08C300CB
:101CBE0043080319632E642E972E3B0883120313D9
:101CCE00A300831603133A0883120313A20083168C
:101CDE000313390883120313A10083160313380864
:101CEE0083120313A0000A128A11E1270A128A1521
:101CFE0083120313230883160313BB0083120313EB
:101D0E00220883160313BA008312031321088316C5
:101D1E000313B90083120313200883160313B800AC
:101D2E003F3083120313C400B830C300AA30C20080
:101D3E003B30C100831603133B0883120313C80004
:101D4E00831603133A0883120313C7008316031373
:101D5E00390883120313C60083160313380883123F
:101D6E000313C5000A128A111B200A128A15831248
:101D7E000313440883160313BB0083120313430893
:101D8E0083160313BA008312031342088316031338
:101D9E00B90083120313410883160313B8003B08DE
:101DAE00A3003A08A2003908A1003808A0000A12C0
:101DBE008A15AB200A128A15831603132308C00056
:101DCE002208BF002108BE002008BD004008831273
:101DDE000313B100831603133F0883120313B000DD
:101DEE00831603133E0883120313AF0083160313E7
:101DFE003D0883120313AE000A168A1178240A12C4
:101E0E008A15831203132F0883160313C20083123D
:101E1E0003132E0883160313C10041088312031304
:101E2E00A00083160313420883120313A10000308F
:101E3E00A11BFF30A200A30001300A168A11A225B1
:101E4E000A128A1583120313230883160313A300A1
:101E5E0083120313220883160313A20083120313A3
:101E6E00210883160313A10083120313200883167F
:101E7E000313A0003B08A7003A08A6003908A500E6
:101E8E003808A4000A168A117C230A128A158316B2
:101E9E0003132308BB002208BA002108B90020084A
:101EAE00B8003B08A3003A08A2003908A100380880
:101EBE00A0000130BC003C08A4000930A500003091
:101ECE00A6000A168A1126270A128A1583160313EC
:101EDE002308B3002208B2002108B1002008B00088
:101EEE004208B5004108B4000A168A115E260A128D
:101EFE008A15831603133308BB003208BA00310863
:101F0E00B9003008B800430803198E2F8F2FFF2F0A
:101F1E003B0883120313B100831603133A0883128E
:101F2E000313B00083160313390883120313AF0093
:101F3E0083160313380883120313AE007F30B500E7
:101F4E007F30B400FF30B300FF30B2000A168A11A2
:101F5E00CC230A128A15031CB52FB62FC12F0030C1
:101F6E0083160313BB000030BA000030B9000030F6
:101F7E00B800FF2F831603133B0883120313A3002D
:101F8E00831603133A0883120313A2008316031356
:101F9E00390883120313A100831603133808831222
:101FAE000313A0003F30A7008030A6000030A5002C
:101FBE000030A4000A128A1104260A128A1583120E
:101FCE000313230883160313BB0083120313220883
:101FDE0083160313BA008312031321088316031307
:101FEE00B90083120313200883160313B800FF2FC2
:101FFE00080010308A000408840A82070034003476
:10200E00003480343F341834723431343F34F03479
:10201E00FD3475343E344734583463343D345834CB
:10202E0095341D343C348234C434AE343A34A8343E
:10203E00783421343934EF34933480343734A03447
:10204E009234A7343534463456341534343400348F
:10205E00003400340034C434FF347F343F348034D1
:10206E00EF34FF34BE349034E134A9343E34EC34D2
:10207E0082347634BE348234AD342B343E340E3456
:10208E003C34C334BD348734D13413343D344134FD
:06209E007834D334BB349A
:1025940083120313A800A401A5012008A200A3012B
:1025A4002208A6002308A700281CD92ADA2AE02A30
:1025B4002608A4070318A50A2708A5070130031055
:1025C400A60DA70DFF3E031DE12A0310A80C280841
:1025D400031DED2AEE2AD62A2508A1002408A0000E
:1025E400080083120313A301A401831203138801B7
:1025F400023083120313A2000430A100B930A000FA
:10260400A00B022BA10B022BA20B022B092BFF30D8
:10261400831203138800023083120313A2000430D0
:10262400A100B930A000A00B152BA10B152BA20BF8
:10263400152B1C2B013083120313A3070318A40AC0
:102644000030A4072408803AFF0080307F02031D75
:102654002D2B03302302031C302B312BF72A0800C7
:102664000B1E352B362B702B8B1C392B3A2B702BD6
:10267400F601F7018312031388010230F2000430DB
:10268400F100BA30F000F00B452BF10B452BF20BA7
:10269400452B0000FF308312031388000230F20040
:1026A4000430F100BA30F000F00B562BF10B562B2E
:1026B400F20B562B00000130F6070318F70A00301E
:1026C400F7077708803AFF0080307F02031D6C2BE8
:1026D40003307602031C6F2B702B3C2B8B10750878
:1026E40083120313FF0074088A00730E8300FE0E26
:1026F4007E0E0900803083160313A3062708831275
:102704000313DE0083160313260883120313DD006C
:1027140083160313250883120313DC0083160313A3
:10272400240883120313DB00831603132308831284
:102734000313E20083160313220883120313E10038
:1027440083160313210883120313E0008316031373
:10275400200883120313DF000A128A117C230A164D
:102764008A11831203135E0883160313A3008312D2
:1027740003135D0883160313A200831203135C087A
:1027840083160313A100831203135B088316031338
:10279400A00008000030831203132E05B600003099
:1027A4002F05B70080303005B8007F303105B900FF
:1027B4003908380437043604031DE12BE22BEA2BD5
:1027C4000030B1000030B0000030AF000030AE0087
:1027D40000303205B60000303305B70080303405D0
:1027E400B8007F303505B900390838043704360499
:1027F400031DFD2BFE2B062C0030B5000030B40069
:102804000030B3000030B20035083106031D142C2B
:1028140034083006031D142C33082F06031D142C12
:1028240032082E060319172C182C1A2C03101B2CF3
:1028340003140800831203133D08B1003C08B000E0
:102844003B08AF003A08AE000030B5000030B400D9
:102854000030B3000030B2000A168A11CC230A16E5
:102864008A11031C362C372C482C831203133E0880
:10287400840083138001840A80010030BD0000308D
:10288400BC000030BB000030BA00772C8312031365
:102894003D087F39BF00C0010310BF0DC00D3E08C5
:1028A40084003F0883138000840A400880003C0DA4
:1028B4003C0D0139BF00C0013E0884003F0880047C
:1028C400840A400880043E08840082308007840F14
:1028D40000080318000AFF00FF307F07800084030C
:1028E4003D0880393F38BD00BC1308000310831233
:1028F4000313300D310DB2003208B8003808031D3F
:10290400842C852C8E2C0030B1000030B0000030B7
:10291400AF000030AE00F32C2E08B2002F08B30035
:102924003008B4003108B5001F300310B50CB40CE6
:10293400B30CB20CFF3E031D972C3208B6003608C8
:10294400B700B017FF30AE05FF30AF05FF30B0055C
:102954000030B1059630B802B81FB12CB22CCC2C83
:102964003808803A973E0318B82CB92CBA2C852C19
:1029740001300310B10CB00CAF0CAE0CFF3E031DC4
:10298400BB2C0130B2003208B807031DCA2CCB2C73
:10299400BA2CE32C20303802031CD12CD22CDE2C90
:1029A400852C0130B2000310AE0DAF0DB00DB10D8A
:1029B400B20BD52C0130B8023808031DE22CE32CED
:1029C400D32C37080319E72CE82CF32CAE09AF09F4
:1029D400B009B109AE0A0319AF0A0319B00A031901
:1029E400B10A08000A128A11F4270A168A110A1277
:1029F4008A11EE270A168A11831203130718032D6E
:102A0400042D092D0A168A11F3220A168A11831637
:102A14000313E501E6018316031365088312031308
:102A2400A00083160313660883120313A100003069
:102A3400A11BFF30A200A30001300A168A11A225AF
:102A44000A168A1183120313230883160313E00062
:102A540083120313220883160313DF008312031364
:102A6400210883160313DE00831203132008831640
:102A74000313DD006008CB005F08CA005E08C900CC
:102A84005D08C8004030C7000030C6000030C500F3
:102A94000030C4000A128A154C230A168A118316C0
:102AA40003134708E4004608E3004508E20044082D
:102AB400E100640883120313B1008316031363084F
:102AC40083120313B00083160313620883120313E3
:102AD400AF0083160313610883120313AE000A16B2
:102AE4008A1178240A168A11831203132E08880087
:102AF400023083160313DC000430DB00B930DA0043
:102B0400DA0B822DDB0B822DDC0B822D892D01301B
:102B140083160313E5070318E60A0030E607660880
:102B2400803AFF0080307F02031D9A2D0830650231
:102B3400031C9D2D9E2D0D2DFE2C0A128A1110288A
:102B440083120313A80028080319A92DAA2DBE2D4A
:102B5400A31FAD2DAE2DBE2D2009AA002109AB0067
:102B64002209AC002309AD00AA0A0319AB0A031910
:102B7400AC0A0319AD0AC62D2308AD002208AC0027
:102B84002108AB002008AA00230822042104200401
:102B9400031DCD2DCE2DD72D0030A3000030A20073
:102BA4000030A1000030A0005D2E9630A40024085F
:102BB400A900E92D0130A4002408A907013003105D
:102BC400AD0CAC0CAB0CAA0CFF3E031DE12DFE308A
:102BD4002D05031DEE2DEF2DDC2D0B2E0130A40051
:102BE4002408A9070130AA07003003180130AB07F5
:102BF400003003180130AC07003003180130AD0772
:102C040001300310AD0CAC0CAB0CAA0CFF3E031D41
:102C1400032EFF302D05031D102E112EF02D1D2E19
:102C24000130A9020130A4000310AA0DAB0DAC0DB4
:102C3400AD0DA40B162EAC1B202E212E272E0230F8
:102C440029020318262E272E122E29182A2E2B2E5F
:102C5400332EFF30AA05FF30AB057F30AC05FF30C3
:102C6400AD050310A90C2908A400A501A601A7011C
:102C740018300310A40DA50DA60DA70DFF3E031DCE
:102C84003B2E2408AA042508AB042608AC04270814
:102C9400AD04280803194F2E502E552EA31F532E72
:102CA400542E552EAD172D08A3002C08A2002B0876
:102CB400A1002A08A0000800831603133308831216
:102CC4000313B10083160313320883120313B000F5
:102CD40083160313310883120313AF0083160313FF
:102CE400300883120313AE000030B5000030B40086
:102CF4000030B3000030B2000A168A11CC230A1641
:102D04008A11031C862E872E922E003083160313FD
:102D1400B3000030B2000030B1000030B000252F05
:102D24008316031333087F39B600B7010310B60DB9
:102D3400B70D3608B4070318B50A3708B507320DBE
:102D4400320D0139B600B7013608B4070318B50AC5
:102D54003708B507B51FAF2EB02EBD2E2230E700C1
:102D64000030E8000030B3000030B2000030B100A1
:102D74000030B000252F3508803AFF0081307F02F3
:102D8400031DC62E00303402031CC92ECA2E0D2F7B
:102D9400223083160313E7000030E800330883125F
:102DA4000313A30083160313320883120313A20030
:102DB40083160313310883120313A100831603132C
:102DC400300883120313A0000030A7000030A600CF
:102DD4000030A5000030A4000A128A1507200A1644
:102DE4008A110318F62EF72E022FFF3083160313D1
:102DF400B3007F30B200FF30B100FF30B000252FA8
:102E04007F3083160313B3007F30B200FF30B1006C
:102E1400FF30B000252F831603133508B70034089C
:102E2400B600370DB70CB60C3308360680393606B3
:102E3400B30034080139B600B60CB60C32083606B5
:102E44007F393606B2000800831603132508A7004D
:102E540001300310A70DFF3E031D2B2F0310270D78
:102E6400240784000A168A1100200A168A11A80071
:102E74000A168A1100200A168A11A9000A168A1154
:102E840000200A168A11AA000A168A1100200A16BE
:102E94008A11AB002B08AF002A08AE002908AD0048
:102EA4002808AC00F12FFF30A5070318A60AFF304D
:102EB400A6072508A70001300310A70DFF3E031D38
:102EC4005E2F0310270D240784000A168A110020A0
:102ED4000A168A11A8000A168A1100200A168A11F5
:102EE400A9000A168A1100200A168A11AA000A16D5
:102EF4008A1100200A168A11AB002B0883120313CF
:102F0400DE00831603132A0883120313DD008316DD
:102F14000313290883120313DC0083160313280800
:102F240083120313DB00831603132F088312031386
:102F3400C400831603132E0883120313C3008316DD
:102F440003132D0883120313C200831603132C08E2
:102F540083120313C100831603132308831203137C
:102F6400C80083160313220883120313C7008316B1
:102F74000313210883120313C600831603132008C6
:102F840083120313C5000A128A111B200A168A1120
:102F9400831203134408E2004308E1004208E000FE
:102FA4004108DF000A128A117C230A168A1183124F
:102FB40003135E0883160313AF00831203135D0823
:102FC40083160313AE00831203135C0883160313E2
:102FD400AD00831203135B0883160313AC002508AA
:102FE4002604031DF62FF72F552F2F08A3002E08B4
:0C2FF400A2002D08A1002C08A00008007D
:00000001FF
